:1000000033C000004CC000004AC0000048C00000DF
:1000100046C0000044C0000042C0000040C00000D4
:100020003EC000003CC000003AC0000038C00000E4
:1000300036C0000034C0000032C0000030C00000F4
:10004000FAC000002CC000002AC0000028C0000038
:1000500026C0000024C0000022C0000020C0000014
:100060001EC000001CC0000011241FBECFEFD8E04E
:10007000DEBFCDBF11E0A0E0B1E0E6E1F4E002C0F8
:1000800005900D92A630B107D9F721E0A6E0B1E0C6
:1000900001C01D92AE30B207E1F789D1BAC1B0CF2D
:1000A0002B9885E08A95F1F700002B9A95E09A95B8
:1000B000F1F700002B988FE891E00197F1F700C06D
:1000C000000008952C9A2B982A988BB9E9CF2C9888
:1000D0002B982A988BB9E4CF882331F080910701BF
:1000E00081608093070102C010920701809107018F
:1000F0008860EDCF81E0EBDF8FE39FE10197F1F7BF
:1001000000C000000895811102C090E001C094E099
:1001100080910701892B809307018860D8CF6230D6
:1001200028F080910901886080930901609308019B
:100130002FEF80E792E0215080409040E1F700C02F
:1001400000002C982B982A98809109018062BFDFCB
:100150008FE496E40197F1F700C000008091090157
:100160008062B5DF87E592E00197F1F700C00000FB
:10017000809109018062ABDF809109018062A7DF75
:1001800084E08093070181E0BEDFB4DF82E08093EA
:10019000060186E09CCF882321F080E1809309014D
:1001A00002C01092090140E061E080E1B8CFF3CFD6
:1001B000662319F0613019F00895806801C0806CE1
:1001C00086CFCF93DF93EC0197FF05C08DE27ADFF6
:1001D000D195C195D109CE010996439730F0CE0152
:1001E0006AE070E0EFD0CB01ECDFCE016AE070E0B6
:1001F000E9D0805DDF91CF9165CFCF93DF93EC01A4
:100200008991882311F05EDFFBCFDF91CF910895B4
:10021000613029F038F0623039F48F7303C08F7386
:10022000806401C0806853DF8FE391E00197F1F7AC
:1002300000C0000008951F920F920FB60F92112474
:100240008F939F93AF93BF9380910A0190910B017D
:10025000A0910C01B0910D01892B8A2B8B2B99F069
:1002600080910A0190910B01A0910C01B0910D01B8
:100270000197A109B10980930A0190930B01A09302
:100280000C01B0930D01BF91AF919F918F910F9091
:100290000FBE0F901F90189591E095BD15BAEEE630
:1002A000F0E080818160808393BD089560930A01AE
:1002B00070930B0180930C0190930D0180910A01C2
:1002C00090910B01A0910C01B0910D01892B8A2B0B
:1002D0008B2BA1F70895CF938FEF84B98AB91BB800
:1002E000DBDF81E064DF789444E062E080E117DFE7
:1002F00081E0F2DEC8E087E6E5DE2FEF83EC99E0EF
:10030000215080409040E1F700C00000C15099F7B3
:1003100061E088E04DDFEEDE83EC9FE352DF60E0DA
:1003200084E046DF80E091E068DF2FEF83ED90E32B
:10033000215080409040E1F700C00000DBDE87E6FE
:10034000C1DED8DE80E1C3DE8FE891E00197F1F7EE
:1003500000C0000082E0BBDE8FE891E00197F1F77A
:1003600000C0000084E0B3DE8FE891E00197F1F770
:1003700000C0000081E0ABDE8FE891E00197F1F76B
:1003800000C0000082E0A3DE8FE891E00197F1F762
:1003900000C0000062E080E03BDF8FE891E0019761
:1003A000F1F700C0000080E091E0CF9126CF93DF0D
:1003B000C0E285B18C2785B960E27EE480E090E000
:1003C00075DFF7CF97FB072E16F4009406D077FD64
:1003D00008D00BD007FC05D03EF4909581959F4F37
:1003E0000895709561957F4F0895AA1BBB1B51E13D
:1003F00007C0AA1FBB1FA617B70710F0A61BB70B95
:10040000881F991F5A95A9F780959095BC01CD0139
:060410000895F894FFCFEF
:0604160068656C6C6F00CC
:00000001FF
