S00C0000313630322E737265634F
S113000033C0000041C000003FC000003DC00000FC
S11300103BC0000039C0000037C0000035C00000FC
S113002033C0000031C000002FC000002DC000000C
S11300302BC0000029C0000027C0000025C000001C
S1130040CEC0000021C000001FC000001DC0000081
S11300501BC0000019C0000017C0000015C000003C
S113006013C0000011C0000011241FBECFEFD8E060
S1130070DEBFCDBF21E0A0E0B1E001C01D92A830F9
S1130080B207E1F71BD14CC1BBCF2B9885E08A9511
S1130090F1F700002B9A95E09A95F1F700002B9860
S11300A08FE891E00197F1F700C0000008952C9AC1
S11300B02B982A988BB9E9CF08952C982B982A98D5
S11300C08BB9E3CF089580910101982F91609093AB
S11300D001018960F2CF089581E0EFDF8FE39FE1B2
S11300E00197F1F700C00000089580910101982F55
S11300F09460909301018C60E0CF0895623028F001
S113010080910301886080930301609302012FEFC3
S113011080E792E0215080409040E1F700C0000069
S11301202C982B982A98809103018062C6DF8FE473
S113013096E40197F1F700C000008091030180620A
S1130140BCDF87E592E00197F1F700C000008091E1
S113015003018062B2DF809103018062AEDF84E03C
S113016080930101C2DFB8DF82E08093000186E062
S1130170A4CF0895882321F080E18093030102C075
S11301801092030140E061E080E1B8CF0895662356
S113019019F0613021F0089580688FCF0895806C44
S11301A08CCF0895CF93DF93EC0199232CF48DE247
S11301B07EDFD195C195D109CE010996439730F0E0
S11301C0CE016AE070E085D0862F71DFCE016AE04F
S11301D070E07FD0805D6BDFDF91CF9108951F9237
S11301E00F920FB60F9211248F939F93AF93BF93E7
S11301F08091040190910501A0910601B09107013D
S1130200892B8A2B8B2B99F0809104019091050105
S1130210A0910601B09107010197A109B10980934A
S1130220040190930501A0930601B0930701BF91C7
S1130230AF919F918F910F900FBE0F901F901895C3
S113024091E095BD15BAEEE6F0E08081816080838F
S113025093BD089560930401709305018093060192
S1130260909307018091040190910501A0910601EA
S1130270B0910701892B8A2B8B2BA1F70895CF937B
S11302808FEF84B98AB91BB883EC9FE38BDFD8DF87
S113029081E070DF789440E062E080E12FDF13DFDB
S11302A0C8E087E604DFC150E1F761E088E06FDF72
S11302B013DF83EC9FE376DFCF910895E0DFC0E2A4
S11302C085B18C2785B960E27EE480E090E0C2DFEE
S11302D0F7CF97FB072E16F4009406D077FD08D0CD
S11302E00BD007FC05D03EF4909581959F4F08955F
S11302F0709561957F4F0895AA1BBB1B51E107C000
S1130300AA1FBB1FA617B70710F0A61BB70B881FA1
S1130310991F5A95A9F780959095BC01CD01089530
S1070320F894FFCF7B
S9030000FC
